{
  "_format": "hh-sol-artifact-1",
  "contractName": "CoveredCallContract",
  "sourceName": "contracts/CoveredCallContract.sol",
  "abi": [
    {
      "inputs": [
        {
          "internalType": "uint256",
          "name": "_amount",
          "type": "uint256"
        },
        {
          "internalType": "uint256",
          "name": "_optionPrice",
          "type": "uint256"
        },
        {
          "internalType": "uint256",
          "name": "_strikePrice",
          "type": "uint256"
        }
      ],
      "stateMutability": "nonpayable",
      "type": "constructor"
    },
    {
      "inputs": [],
      "name": "amount",
      "outputs": [
        {
          "internalType": "uint256",
          "name": "",
          "type": "uint256"
        }
      ],
      "stateMutability": "view",
      "type": "function"
    },
    {
      "inputs": [],
      "name": "callBuyer",
      "outputs": [
        {
          "internalType": "address",
          "name": "",
          "type": "address"
        }
      ],
      "stateMutability": "view",
      "type": "function"
    },
    {
      "inputs": [],
      "name": "callWriter",
      "outputs": [
        {
          "internalType": "address",
          "name": "",
          "type": "address"
        }
      ],
      "stateMutability": "view",
      "type": "function"
    },
    {
      "inputs": [],
      "name": "depositCollateral",
      "outputs": [],
      "stateMutability": "payable",
      "type": "function"
    },
    {
      "inputs": [
        {
          "internalType": "address",
          "name": "_callBuyer",
          "type": "address"
        }
      ],
      "name": "executeOption",
      "outputs": [],
      "stateMutability": "payable",
      "type": "function"
    },
    {
      "inputs": [],
      "name": "expiryDate",
      "outputs": [
        {
          "internalType": "uint256",
          "name": "",
          "type": "uint256"
        }
      ],
      "stateMutability": "view",
      "type": "function"
    },
    {
      "inputs": [],
      "name": "optionPrice",
      "outputs": [
        {
          "internalType": "uint256",
          "name": "",
          "type": "uint256"
        }
      ],
      "stateMutability": "view",
      "type": "function"
    },
    {
      "inputs": [],
      "name": "purchaseOption",
      "outputs": [],
      "stateMutability": "payable",
      "type": "function"
    },
    {
      "inputs": [],
      "name": "refund",
      "outputs": [],
      "stateMutability": "payable",
      "type": "function"
    },
    {
      "inputs": [
        {
          "internalType": "bool",
          "name": "_optionExecuted",
          "type": "bool"
        }
      ],
      "name": "setOptionExecuted",
      "outputs": [],
      "stateMutability": "nonpayable",
      "type": "function"
    },
    {
      "inputs": [
        {
          "internalType": "bool",
          "name": "_wasPurchased",
          "type": "bool"
        }
      ],
      "name": "setWasPurchased",
      "outputs": [],
      "stateMutability": "nonpayable",
      "type": "function"
    },
    {
      "inputs": [],
      "name": "strikePrice",
      "outputs": [
        {
          "internalType": "uint256",
          "name": "",
          "type": "uint256"
        }
      ],
      "stateMutability": "view",
      "type": "function"
    }
  ],
  "bytecode": "0x60806040523480156200001157600080fd5b5060405162000f0538038062000f058339818101604052810190620000379190620000ec565b336000806101000a81548173ffffffffffffffffffffffffffffffffffffffff021916908373ffffffffffffffffffffffffffffffffffffffff16021790555082600281905550816003819055508060048190555062093a80426200009d919062000177565b600581905550505050620001b2565b600080fd5b6000819050919050565b620000c681620000b1565b8114620000d257600080fd5b50565b600081519050620000e681620000bb565b92915050565b600080600060608486031215620001085762000107620000ac565b5b60006200011886828701620000d5565b93505060206200012b86828701620000d5565b92505060406200013e86828701620000d5565b9150509250925092565b7f4e487b7100000000000000000000000000000000000000000000000000000000600052601160045260246000fd5b60006200018482620000b1565b91506200019183620000b1565b9250828201905080821115620001ac57620001ab62000148565b5b92915050565b610d4380620001c26000396000f3fe6080604052600436106100a75760003560e01c8063a6039ad411610064578063a6039ad41461015d578063aa8c217c14610186578063addfba23146101b1578063c52987cf146101dc578063dc75d9f714610207578063ea1543a114610211576100a7565b806305bee553146100ac578063516dde43146100c8578063590e1ae3146100f35780636f758140146100fd57806370c62128146101075780637c47944914610132575b600080fd5b6100c660048036038101906100c191906107f4565b61023a565b005b3480156100d457600080fd5b506100dd610481565b6040516100ea919061083a565b60405180910390f35b6100fb610487565b005b61010561058b565b005b34801561011357600080fd5b5061011c6105d2565b6040516101299190610864565b60405180910390f35b34801561013e57600080fd5b506101476105f8565b604051610154919061083a565b60405180910390f35b34801561016957600080fd5b50610184600480360381019061017f91906108b7565b6105fe565b005b34801561019257600080fd5b5061019b61061b565b6040516101a8919061083a565b60405180910390f35b3480156101bd57600080fd5b506101c6610621565b6040516101d39190610864565b60405180910390f35b3480156101e857600080fd5b506101f1610645565b6040516101fe919061083a565b60405180910390f35b61020f61064b565b005b34801561021d57600080fd5b50610238600480360381019061023391906108b7565b610774565b005b60011515600660009054906101000a900460ff16151514610290576040517f08c379a000000000000000000000000000000000000000000000000000000000815260040161028790610941565b60405180910390fd5b60001515600660019054906101000a900460ff161515146102e6576040517f08c379a00000000000000000000000000000000000000000000000000000000081526004016102dd906109d3565b60405180910390fd5b600254471461032a576040517f08c379a000000000000000000000000000000000000000000000000000000000815260040161032190610a3f565b60405180910390fd5b60055442111561036f576040517f08c379a000000000000000000000000000000000000000000000000000000000815260040161036690610aab565b60405180910390fd5b60045434146103b3576040517f08c379a00000000000000000000000000000000000000000000000000000000081526004016103aa90610b17565b60405180910390fd5b60008054906101000a900473ffffffffffffffffffffffffffffffffffffffff1673ffffffffffffffffffffffffffffffffffffffff166108fc349081150290604051600060405180830381858888f19350505050158015610419573d6000803e3d6000fd5b508073ffffffffffffffffffffffffffffffffffffffff166108fc6002549081150290604051600060405180830381858888f19350505050158015610462573d6000803e3d6000fd5b506001600660016101000a81548160ff02191690831515021790555050565b60055481565b6005544210156104cc576040517f08c379a00000000000000000000000000000000000000000000000000000000081526004016104c390610b83565b60405180910390fd5b60001515600660009054906101000a900460ff16151514610522576040517f08c379a000000000000000000000000000000000000000000000000000000000815260040161051990610c15565b60405180910390fd5b60008054906101000a900473ffffffffffffffffffffffffffffffffffffffff1673ffffffffffffffffffffffffffffffffffffffff166108fc479081150290604051600060405180830381858888f19350505050158015610588573d6000803e3d6000fd5b50565b6002543410156105d0576040517f08c379a00000000000000000000000000000000000000000000000000000000081526004016105c790610c81565b60405180910390fd5b565b600160009054906101000a900473ffffffffffffffffffffffffffffffffffffffff1681565b60035481565b80600660016101000a81548160ff02191690831515021790555050565b60025481565b60008054906101000a900473ffffffffffffffffffffffffffffffffffffffff1681565b60045481565b60001515600660009054906101000a900460ff1615151461066b57600080fd5b60035434146106af576040517f08c379a00000000000000000000000000000000000000000000000000000000081526004016106a690610ced565b60405180910390fd5b33600160006101000a81548173ffffffffffffffffffffffffffffffffffffffff021916908373ffffffffffffffffffffffffffffffffffffffff16021790555060008054906101000a900473ffffffffffffffffffffffffffffffffffffffff1673ffffffffffffffffffffffffffffffffffffffff166108fc349081150290604051600060405180830381858888f19350505050158015610756573d6000803e3d6000fd5b506001600660006101000a81548160ff021916908315150217905550565b80600660006101000a81548160ff02191690831515021790555050565b600080fd5b600073ffffffffffffffffffffffffffffffffffffffff82169050919050565b60006107c182610796565b9050919050565b6107d1816107b6565b81146107dc57600080fd5b50565b6000813590506107ee816107c8565b92915050565b60006020828403121561080a57610809610791565b5b6000610818848285016107df565b91505092915050565b6000819050919050565b61083481610821565b82525050565b600060208201905061084f600083018461082b565b92915050565b61085e816107b6565b82525050565b60006020820190506108796000830184610855565b92915050565b60008115159050919050565b6108948161087f565b811461089f57600080fd5b50565b6000813590506108b18161088b565b92915050565b6000602082840312156108cd576108cc610791565b5b60006108db848285016108a2565b91505092915050565b600082825260208201905092915050565b7f4f7074696f6e20686173206e6f74206265656e20707572636861736564000000600082015250565b600061092b601d836108e4565b9150610936826108f5565b602082019050919050565b6000602082019050818103600083015261095a8161091e565b9050919050565b7f796f752063616e6e6f74206578656375746520616e206f7074696f6e2074776960008201527f6365000000000000000000000000000000000000000000000000000000000000602082015250565b60006109bd6022836108e4565b91506109c882610961565b604082019050919050565b600060208201905081810360008301526109ec816109b0565b9050919050565b7f46756e64696e67206572726f7200000000000000000000000000000000000000600082015250565b6000610a29600d836108e4565b9150610a34826109f3565b602082019050919050565b60006020820190508181036000830152610a5881610a1c565b9050919050565b7f4f7074696f6e2068617320616c72656164792065787069726564000000000000600082015250565b6000610a95601a836108e4565b9150610aa082610a5f565b602082019050919050565b60006020820190508181036000830152610ac481610a88565b9050919050565b7f5061796d656e74206572726f7200000000000000000000000000000000000000600082015250565b6000610b01600d836108e4565b9150610b0c82610acb565b602082019050919050565b60006020820190508181036000830152610b3081610af4565b9050919050565b7f4f7074696f6e20686173206e6f74206578706972656420796574000000000000600082015250565b6000610b6d601a836108e4565b9150610b7882610b37565b602082019050919050565b60006020820190508181036000830152610b9c81610b60565b9050919050565b7f4f7074696f6e2068617320616c7265616479206265656e20707572636861736560008201527f6400000000000000000000000000000000000000000000000000000000000000602082015250565b6000610bff6021836108e4565b9150610c0a82610ba3565b604082019050919050565b60006020820190508181036000830152610c2e81610bf2565b9050919050565b7f20496e73756666696369656e742062616c616e63650000000000000000000000600082015250565b6000610c6b6015836108e4565b9150610c7682610c35565b602082019050919050565b60006020820190508181036000830152610c9a81610c5e565b9050919050565b7f496e636f72726563742070757263686173652070726963650000000000000000600082015250565b6000610cd76018836108e4565b9150610ce282610ca1565b602082019050919050565b60006020820190508181036000830152610d0681610cca565b905091905056fea2646970667358221220a08f4a197e3b570b972dff8b9b8753c4f7010d55a5066bae4e7cfcbd1c83294a64736f6c63430008110033",
  "linkReferences": {},
  "deployedLinkReferences": {}
}